{
	"data": {
		"bytecode": {
			"linkReferences": {},
			"object": "60806040526040518060400160405280600781526020016040518060400160405280600381526020017f426f62000000000000000000000000000000000000000000000000000000000081525081525060015f820151815f0155602082015181600101908161006e91906102bf565b50505034801561007c575f5ffd5b5061038e565b5f81519050919050565b7f4e487b71000000000000000000000000000000000000000000000000000000005f52604160045260245ffd5b7f4e487b71000000000000000000000000000000000000000000000000000000005f52602260045260245ffd5b5f60028204905060018216806100fd57607f821691505b6020821081036101105761010f6100b9565b5b50919050565b5f819050815f5260205f209050919050565b5f6020601f8301049050919050565b5f82821b905092915050565b5f600883026101727fffffffffffffffffffffffffffffffffffffffffffffffffffffffffffffffff82610137565b61017c8683610137565b95508019841693508086168417925050509392505050565b5f819050919050565b5f819050919050565b5f6101c06101bb6101b684610194565b61019d565b610194565b9050919050565b5f819050919050565b6101d9836101a6565b6101ed6101e5826101c7565b848454610143565b825550505050565b5f5f905090565b6102046101f5565b61020f8184846101d0565b505050565b5b81811015610232576102275f826101fc565b600181019050610215565b5050565b601f8211156102775761024881610116565b61025184610128565b81016020851015610260578190505b61027461026c85610128565b830182610214565b50505b505050565b5f82821c905092915050565b5f6102975f198460080261027c565b1980831691505092915050565b5f6102af8383610288565b9150826002028217905092915050565b6102c882610082565b67ffffffffffffffff8111156102e1576102e061008c565b5b6102eb82546100e6565b6102f6828285610236565b5f60209050601f831160018114610327575f8415610315578287015190505b61031f85826102a4565b865550610386565b601f19841661033586610116565b5f5b8281101561035c57848901518255600182019150602085019450602081019050610337565b868310156103795784890151610375601f891682610288565b8355505b6001600288020188555050505b505050505050565b6109178061039b5f395ff3fe608060405234801561000f575f5ffd5b5060043610610055575f3560e01c80632e64cec11461005957806346cb59c2146100775780636057361d1461009657806395679e46146100b2578063bc832d4e146100e2575b5f5ffd5b6100616100fe565b60405161006e919061027b565b60405180910390f35b61007f610106565b60405161008d929190610304565b60405180910390f35b6100b060048036038101906100ab919061036d565b61019d565b005b6100cc60048036038101906100c791906104c4565b6101b2565b6040516100d9919061027b565b60405180910390f35b6100fc60048036038101906100f7919061050b565b6101df565b005b5f5f54905090565b6001805f01549080600101805461011c90610592565b80601f016020809104026020016040519081016040528092919081815260200182805461014890610592565b80156101935780601f1061016a57610100808354040283529160200191610193565b820191905f5260205f20905b81548152906001019060200180831161017657829003601f168201915b5050505050905082565b6005816101aa91906105ef565b5f8190555050565b6004818051602081018201805184825260208301602085012081835280955050505050505f915090505481565b6003604051806040016040528084815260200183815250908060018154018082558091505060019003905f5260205f2090600202015f909190919091505f820151815f0155602082015181600101908161023991906107c2565b5050508160048260405161024d91906108cb565b9081526020016040518091039020819055505050565b5f819050919050565b61027581610263565b82525050565b5f60208201905061028e5f83018461026c565b92915050565b5f81519050919050565b5f82825260208201905092915050565b8281835e5f83830152505050565b5f601f19601f8301169050919050565b5f6102d682610294565b6102e0818561029e565b93506102f08185602086016102ae565b6102f9816102bc565b840191505092915050565b5f6040820190506103175f83018561026c565b818103602083015261032981846102cc565b90509392505050565b5f604051905090565b5f5ffd5b5f5ffd5b61034c81610263565b8114610356575f5ffd5b50565b5f8135905061036781610343565b92915050565b5f602082840312156103825761038161033b565b5b5f61038f84828501610359565b91505092915050565b5f5ffd5b5f5ffd5b7f4e487b71000000000000000000000000000000000000000000000000000000005f52604160045260245ffd5b6103d6826102bc565b810181811067ffffffffffffffff821117156103f5576103f46103a0565b5b80604052505050565b5f610407610332565b905061041382826103cd565b919050565b5f67ffffffffffffffff821115610432576104316103a0565b5b61043b826102bc565b9050602081019050919050565b828183375f83830152505050565b5f61046861046384610418565b6103fe565b9050828152602081018484840111156104845761048361039c565b5b61048f848285610448565b509392505050565b5f82601f8301126104ab576104aa610398565b5b81356104bb848260208601610456565b91505092915050565b5f602082840312156104d9576104d861033b565b5b5f82013567ffffffffffffffff8111156104f6576104f561033f565b5b61050284828501610497565b91505092915050565b5f5f604083850312156105215761052061033b565b5b5f61052e85828601610359565b925050602083013567ffffffffffffffff81111561054f5761054e61033f565b5b61055b85828601610497565b9150509250929050565b7f4e487b71000000000000000000000000000000000000000000000000000000005f52602260045260245ffd5b5f60028204905060018216806105a957607f821691505b6020821081036105bc576105bb610565565b5b50919050565b7f4e487b71000000000000000000000000000000000000000000000000000000005f52601160045260245ffd5b5f6105f982610263565b915061060483610263565b925082820190508082111561061c5761061b6105c2565b5b92915050565b5f819050815f5260205f209050919050565b5f6020601f8301049050919050565b5f82821b905092915050565b5f6008830261067e7fffffffffffffffffffffffffffffffffffffffffffffffffffffffffffffffff82610643565b6106888683610643565b95508019841693508086168417925050509392505050565b5f819050919050565b5f6106c36106be6106b984610263565b6106a0565b610263565b9050919050565b5f819050919050565b6106dc836106a9565b6106f06106e8826106ca565b84845461064f565b825550505050565b5f5f905090565b6107076106f8565b6107128184846106d3565b505050565b5b818110156107355761072a5f826106ff565b600181019050610718565b5050565b601f82111561077a5761074b81610622565b61075484610634565b81016020851015610763578190505b61077761076f85610634565b830182610717565b50505b505050565b5f82821c905092915050565b5f61079a5f198460080261077f565b1980831691505092915050565b5f6107b2838361078b565b9150826002028217905092915050565b6107cb82610294565b67ffffffffffffffff8111156107e4576107e36103a0565b5b6107ee8254610592565b6107f9828285610739565b5f60209050601f83116001811461082a575f8415610818578287015190505b61082285826107a7565b865550610889565b601f19841661083886610622565b5f5b8281101561085f5784890151825560018201915060208501945060208101905061083a565b8683101561087c5784890151610878601f89168261078b565b8355505b6001600288020188555050505b505050505050565b5f81905092915050565b5f6108a582610294565b6108af8185610891565b93506108bf8185602086016102ae565b80840191505092915050565b5f6108d6828461089b565b91508190509291505056fea2646970667358221220df4aa5f6cf585045e391d5d4daff828b766279a9b3541f7035a3aa1c12f7508e64736f6c634300081e0033",
			"opcodes": "PUSH1 0x80 PUSH1 0x40 MSTORE PUSH1 0x40 MLOAD DUP1 PUSH1 0x40 ADD PUSH1 0x40 MSTORE DUP1 PUSH1 0x7 DUP2 MSTORE PUSH1 0x20 ADD PUSH1 0x40 MLOAD DUP1 PUSH1 0x40 ADD PUSH1 0x40 MSTORE DUP1 PUSH1 0x3 DUP2 MSTORE PUSH1 0x20 ADD PUSH32 0x426F620000000000000000000000000000000000000000000000000000000000 DUP2 MSTORE POP DUP2 MSTORE POP PUSH1 0x1 PUSH0 DUP3 ADD MLOAD DUP2 PUSH0 ADD SSTORE PUSH1 0x20 DUP3 ADD MLOAD DUP2 PUSH1 0x1 ADD SWAP1 DUP2 PUSH2 0x6E SWAP2 SWAP1 PUSH2 0x2BF JUMP JUMPDEST POP POP POP CALLVALUE DUP1 ISZERO PUSH2 0x7C JUMPI PUSH0 PUSH0 REVERT JUMPDEST POP PUSH2 0x38E JUMP JUMPDEST PUSH0 DUP2 MLOAD SWAP1 POP SWAP2 SWAP1 POP JUMP JUMPDEST PUSH32 0x4E487B7100000000000000000000000000000000000000000000000000000000 PUSH0 MSTORE PUSH1 0x41 PUSH1 0x4 MSTORE PUSH1 0x24 PUSH0 REVERT JUMPDEST PUSH32 0x4E487B7100000000000000000000000000000000000000000000000000000000 PUSH0 MSTORE PUSH1 0x22 PUSH1 0x4 MSTORE PUSH1 0x24 PUSH0 REVERT JUMPDEST PUSH0 PUSH1 0x2 DUP3 DIV SWAP1 POP PUSH1 0x1 DUP3 AND DUP1 PUSH2 0xFD JUMPI PUSH1 0x7F DUP3 AND SWAP2 POP JUMPDEST PUSH1 0x20 DUP3 LT DUP2 SUB PUSH2 0x110 JUMPI PUSH2 0x10F PUSH2 0xB9 JUMP JUMPDEST JUMPDEST POP SWAP2 SWAP1 POP JUMP JUMPDEST PUSH0 DUP2 SWAP1 POP DUP2 PUSH0 MSTORE PUSH1 0x20 PUSH0 KECCAK256 SWAP1 POP SWAP2 SWAP1 POP JUMP JUMPDEST PUSH0 PUSH1 0x20 PUSH1 0x1F DUP4 ADD DIV SWAP1 POP SWAP2 SWAP1 POP JUMP JUMPDEST PUSH0 DUP3 DUP3 SHL SWAP1 POP SWAP3 SWAP2 POP POP JUMP JUMPDEST PUSH0 PUSH1 0x8 DUP4 MUL PUSH2 0x172 PUSH32 0xFFFFFFFFFFFFFFFFFFFFFFFFFFFFFFFFFFFFFFFFFFFFFFFFFFFFFFFFFFFFFFFF DUP3 PUSH2 0x137 JUMP JUMPDEST PUSH2 0x17C DUP7 DUP4 PUSH2 0x137 JUMP JUMPDEST SWAP6 POP DUP1 NOT DUP5 AND SWAP4 POP DUP1 DUP7 AND DUP5 OR SWAP3 POP POP POP SWAP4 SWAP3 POP POP POP JUMP JUMPDEST PUSH0 DUP2 SWAP1 POP SWAP2 SWAP1 POP JUMP JUMPDEST PUSH0 DUP2 SWAP1 POP SWAP2 SWAP1 POP JUMP JUMPDEST PUSH0 PUSH2 0x1C0 PUSH2 0x1BB PUSH2 0x1B6 DUP5 PUSH2 0x194 JUMP JUMPDEST PUSH2 0x19D JUMP JUMPDEST PUSH2 0x194 JUMP JUMPDEST SWAP1 POP SWAP2 SWAP1 POP JUMP JUMPDEST PUSH0 DUP2 SWAP1 POP SWAP2 SWAP1 POP JUMP JUMPDEST PUSH2 0x1D9 DUP4 PUSH2 0x1A6 JUMP JUMPDEST PUSH2 0x1ED PUSH2 0x1E5 DUP3 PUSH2 0x1C7 JUMP JUMPDEST DUP5 DUP5 SLOAD PUSH2 0x143 JUMP JUMPDEST DUP3 SSTORE POP POP POP POP JUMP JUMPDEST PUSH0 PUSH0 SWAP1 POP SWAP1 JUMP JUMPDEST PUSH2 0x204 PUSH2 0x1F5 JUMP JUMPDEST PUSH2 0x20F DUP2 DUP5 DUP5 PUSH2 0x1D0 JUMP JUMPDEST POP POP POP JUMP JUMPDEST JUMPDEST DUP2 DUP2 LT ISZERO PUSH2 0x232 JUMPI PUSH2 0x227 PUSH0 DUP3 PUSH2 0x1FC JUMP JUMPDEST PUSH1 0x1 DUP2 ADD SWAP1 POP PUSH2 0x215 JUMP JUMPDEST POP POP JUMP JUMPDEST PUSH1 0x1F DUP3 GT ISZERO PUSH2 0x277 JUMPI PUSH2 0x248 DUP2 PUSH2 0x116 JUMP JUMPDEST PUSH2 0x251 DUP5 PUSH2 0x128 JUMP JUMPDEST DUP2 ADD PUSH1 0x20 DUP6 LT ISZERO PUSH2 0x260 JUMPI DUP2 SWAP1 POP JUMPDEST PUSH2 0x274 PUSH2 0x26C DUP6 PUSH2 0x128 JUMP JUMPDEST DUP4 ADD DUP3 PUSH2 0x214 JUMP JUMPDEST POP POP JUMPDEST POP POP POP JUMP JUMPDEST PUSH0 DUP3 DUP3 SHR SWAP1 POP SWAP3 SWAP2 POP POP JUMP JUMPDEST PUSH0 PUSH2 0x297 PUSH0 NOT DUP5 PUSH1 0x8 MUL PUSH2 0x27C JUMP JUMPDEST NOT DUP1 DUP4 AND SWAP2 POP POP SWAP3 SWAP2 POP POP JUMP JUMPDEST PUSH0 PUSH2 0x2AF DUP4 DUP4 PUSH2 0x288 JUMP JUMPDEST SWAP2 POP DUP3 PUSH1 0x2 MUL DUP3 OR SWAP1 POP SWAP3 SWAP2 POP POP JUMP JUMPDEST PUSH2 0x2C8 DUP3 PUSH2 0x82 JUMP JUMPDEST PUSH8 0xFFFFFFFFFFFFFFFF DUP2 GT ISZERO PUSH2 0x2E1 JUMPI PUSH2 0x2E0 PUSH2 0x8C JUMP JUMPDEST JUMPDEST PUSH2 0x2EB DUP3 SLOAD PUSH2 0xE6 JUMP JUMPDEST PUSH2 0x2F6 DUP3 DUP3 DUP6 PUSH2 0x236 JUMP JUMPDEST PUSH0 PUSH1 0x20 SWAP1 POP PUSH1 0x1F DUP4 GT PUSH1 0x1 DUP2 EQ PUSH2 0x327 JUMPI PUSH0 DUP5 ISZERO PUSH2 0x315 JUMPI DUP3 DUP8 ADD MLOAD SWAP1 POP JUMPDEST PUSH2 0x31F DUP6 DUP3 PUSH2 0x2A4 JUMP JUMPDEST DUP7 SSTORE POP PUSH2 0x386 JUMP JUMPDEST PUSH1 0x1F NOT DUP5 AND PUSH2 0x335 DUP7 PUSH2 0x116 JUMP JUMPDEST PUSH0 JUMPDEST DUP3 DUP2 LT ISZERO PUSH2 0x35C JUMPI DUP5 DUP10 ADD MLOAD DUP3 SSTORE PUSH1 0x1 DUP3 ADD SWAP2 POP PUSH1 0x20 DUP6 ADD SWAP5 POP PUSH1 0x20 DUP2 ADD SWAP1 POP PUSH2 0x337 JUMP JUMPDEST DUP7 DUP4 LT ISZERO PUSH2 0x379 JUMPI DUP5 DUP10 ADD MLOAD PUSH2 0x375 PUSH1 0x1F DUP10 AND DUP3 PUSH2 0x288 JUMP JUMPDEST DUP4 SSTORE POP JUMPDEST PUSH1 0x1 PUSH1 0x2 DUP9 MUL ADD DUP9 SSTORE POP POP POP JUMPDEST POP POP POP POP POP POP JUMP JUMPDEST PUSH2 0x917 DUP1 PUSH2 0x39B PUSH0 CODECOPY PUSH0 RETURN INVALID PUSH1 0x80 PUSH1 0x40 MSTORE CALLVALUE DUP1 ISZERO PUSH2 0xF JUMPI PUSH0 PUSH0 REVERT JUMPDEST POP PUSH1 0x4 CALLDATASIZE LT PUSH2 0x55 JUMPI PUSH0 CALLDATALOAD PUSH1 0xE0 SHR DUP1 PUSH4 0x2E64CEC1 EQ PUSH2 0x59 JUMPI DUP1 PUSH4 0x46CB59C2 EQ PUSH2 0x77 JUMPI DUP1 PUSH4 0x6057361D EQ PUSH2 0x96 JUMPI DUP1 PUSH4 0x95679E46 EQ PUSH2 0xB2 JUMPI DUP1 PUSH4 0xBC832D4E EQ PUSH2 0xE2 JUMPI JUMPDEST PUSH0 PUSH0 REVERT JUMPDEST PUSH2 0x61 PUSH2 0xFE JUMP JUMPDEST PUSH1 0x40 MLOAD PUSH2 0x6E SWAP2 SWAP1 PUSH2 0x27B JUMP JUMPDEST PUSH1 0x40 MLOAD DUP1 SWAP2 SUB SWAP1 RETURN JUMPDEST PUSH2 0x7F PUSH2 0x106 JUMP JUMPDEST PUSH1 0x40 MLOAD PUSH2 0x8D SWAP3 SWAP2 SWAP1 PUSH2 0x304 JUMP JUMPDEST PUSH1 0x40 MLOAD DUP1 SWAP2 SUB SWAP1 RETURN JUMPDEST PUSH2 0xB0 PUSH1 0x4 DUP1 CALLDATASIZE SUB DUP2 ADD SWAP1 PUSH2 0xAB SWAP2 SWAP1 PUSH2 0x36D JUMP JUMPDEST PUSH2 0x19D JUMP JUMPDEST STOP JUMPDEST PUSH2 0xCC PUSH1 0x4 DUP1 CALLDATASIZE SUB DUP2 ADD SWAP1 PUSH2 0xC7 SWAP2 SWAP1 PUSH2 0x4C4 JUMP JUMPDEST PUSH2 0x1B2 JUMP JUMPDEST PUSH1 0x40 MLOAD PUSH2 0xD9 SWAP2 SWAP1 PUSH2 0x27B JUMP JUMPDEST PUSH1 0x40 MLOAD DUP1 SWAP2 SUB SWAP1 RETURN JUMPDEST PUSH2 0xFC PUSH1 0x4 DUP1 CALLDATASIZE SUB DUP2 ADD SWAP1 PUSH2 0xF7 SWAP2 SWAP1 PUSH2 0x50B JUMP JUMPDEST PUSH2 0x1DF JUMP JUMPDEST STOP JUMPDEST PUSH0 PUSH0 SLOAD SWAP1 POP SWAP1 JUMP JUMPDEST PUSH1 0x1 DUP1 PUSH0 ADD SLOAD SWAP1 DUP1 PUSH1 0x1 ADD DUP1 SLOAD PUSH2 0x11C SWAP1 PUSH2 0x592 JUMP JUMPDEST DUP1 PUSH1 0x1F ADD PUSH1 0x20 DUP1 SWAP2 DIV MUL PUSH1 0x20 ADD PUSH1 0x40 MLOAD SWAP1 DUP2 ADD PUSH1 0x40 MSTORE DUP1 SWAP3 SWAP2 SWAP1 DUP2 DUP2 MSTORE PUSH1 0x20 ADD DUP3 DUP1 SLOAD PUSH2 0x148 SWAP1 PUSH2 0x592 JUMP JUMPDEST DUP1 ISZERO PUSH2 0x193 JUMPI DUP1 PUSH1 0x1F LT PUSH2 0x16A JUMPI PUSH2 0x100 DUP1 DUP4 SLOAD DIV MUL DUP4 MSTORE SWAP2 PUSH1 0x20 ADD SWAP2 PUSH2 0x193 JUMP JUMPDEST DUP3 ADD SWAP2 SWAP1 PUSH0 MSTORE PUSH1 0x20 PUSH0 KECCAK256 SWAP1 JUMPDEST DUP2 SLOAD DUP2 MSTORE SWAP1 PUSH1 0x1 ADD SWAP1 PUSH1 0x20 ADD DUP1 DUP4 GT PUSH2 0x176 JUMPI DUP3 SWAP1 SUB PUSH1 0x1F AND DUP3 ADD SWAP2 JUMPDEST POP POP POP POP POP SWAP1 POP DUP3 JUMP JUMPDEST PUSH1 0x5 DUP2 PUSH2 0x1AA SWAP2 SWAP1 PUSH2 0x5EF JUMP JUMPDEST PUSH0 DUP2 SWAP1 SSTORE POP POP JUMP JUMPDEST PUSH1 0x4 DUP2 DUP1 MLOAD PUSH1 0x20 DUP2 ADD DUP3 ADD DUP1 MLOAD DUP5 DUP3 MSTORE PUSH1 0x20 DUP4 ADD PUSH1 0x20 DUP6 ADD KECCAK256 DUP2 DUP4 MSTORE DUP1 SWAP6 POP POP POP POP POP POP PUSH0 SWAP2 POP SWAP1 POP SLOAD DUP2 JUMP JUMPDEST PUSH1 0x3 PUSH1 0x40 MLOAD DUP1 PUSH1 0x40 ADD PUSH1 0x40 MSTORE DUP1 DUP5 DUP2 MSTORE PUSH1 0x20 ADD DUP4 DUP2 MSTORE POP SWAP1 DUP1 PUSH1 0x1 DUP2 SLOAD ADD DUP1 DUP3 SSTORE DUP1 SWAP2 POP POP PUSH1 0x1 SWAP1 SUB SWAP1 PUSH0 MSTORE PUSH1 0x20 PUSH0 KECCAK256 SWAP1 PUSH1 0x2 MUL ADD PUSH0 SWAP1 SWAP2 SWAP1 SWAP2 SWAP1 SWAP2 POP PUSH0 DUP3 ADD MLOAD DUP2 PUSH0 ADD SSTORE PUSH1 0x20 DUP3 ADD MLOAD DUP2 PUSH1 0x1 ADD SWAP1 DUP2 PUSH2 0x239 SWAP2 SWAP1 PUSH2 0x7C2 JUMP JUMPDEST POP POP POP DUP2 PUSH1 0x4 DUP3 PUSH1 0x40 MLOAD PUSH2 0x24D SWAP2 SWAP1 PUSH2 0x8CB JUMP JUMPDEST SWAP1 DUP2 MSTORE PUSH1 0x20 ADD PUSH1 0x40 MLOAD DUP1 SWAP2 SUB SWAP1 KECCAK256 DUP2 SWAP1 SSTORE POP POP POP JUMP JUMPDEST PUSH0 DUP2 SWAP1 POP SWAP2 SWAP1 POP JUMP JUMPDEST PUSH2 0x275 DUP2 PUSH2 0x263 JUMP JUMPDEST DUP3 MSTORE POP POP JUMP JUMPDEST PUSH0 PUSH1 0x20 DUP3 ADD SWAP1 POP PUSH2 0x28E PUSH0 DUP4 ADD DUP5 PUSH2 0x26C JUMP JUMPDEST SWAP3 SWAP2 POP POP JUMP JUMPDEST PUSH0 DUP2 MLOAD SWAP1 POP SWAP2 SWAP1 POP JUMP JUMPDEST PUSH0 DUP3 DUP3 MSTORE PUSH1 0x20 DUP3 ADD SWAP1 POP SWAP3 SWAP2 POP POP JUMP JUMPDEST DUP3 DUP2 DUP4 MCOPY PUSH0 DUP4 DUP4 ADD MSTORE POP POP POP JUMP JUMPDEST PUSH0 PUSH1 0x1F NOT PUSH1 0x1F DUP4 ADD AND SWAP1 POP SWAP2 SWAP1 POP JUMP JUMPDEST PUSH0 PUSH2 0x2D6 DUP3 PUSH2 0x294 JUMP JUMPDEST PUSH2 0x2E0 DUP2 DUP6 PUSH2 0x29E JUMP JUMPDEST SWAP4 POP PUSH2 0x2F0 DUP2 DUP6 PUSH1 0x20 DUP7 ADD PUSH2 0x2AE JUMP JUMPDEST PUSH2 0x2F9 DUP2 PUSH2 0x2BC JUMP JUMPDEST DUP5 ADD SWAP2 POP POP SWAP3 SWAP2 POP POP JUMP JUMPDEST PUSH0 PUSH1 0x40 DUP3 ADD SWAP1 POP PUSH2 0x317 PUSH0 DUP4 ADD DUP6 PUSH2 0x26C JUMP JUMPDEST DUP2 DUP2 SUB PUSH1 0x20 DUP4 ADD MSTORE PUSH2 0x329 DUP2 DUP5 PUSH2 0x2CC JUMP JUMPDEST SWAP1 POP SWAP4 SWAP3 POP POP POP JUMP JUMPDEST PUSH0 PUSH1 0x40 MLOAD SWAP1 POP SWAP1 JUMP JUMPDEST PUSH0 PUSH0 REVERT JUMPDEST PUSH0 PUSH0 REVERT JUMPDEST PUSH2 0x34C DUP2 PUSH2 0x263 JUMP JUMPDEST DUP2 EQ PUSH2 0x356 JUMPI PUSH0 PUSH0 REVERT JUMPDEST POP JUMP JUMPDEST PUSH0 DUP2 CALLDATALOAD SWAP1 POP PUSH2 0x367 DUP2 PUSH2 0x343 JUMP JUMPDEST SWAP3 SWAP2 POP POP JUMP JUMPDEST PUSH0 PUSH1 0x20 DUP3 DUP5 SUB SLT ISZERO PUSH2 0x382 JUMPI PUSH2 0x381 PUSH2 0x33B JUMP JUMPDEST JUMPDEST PUSH0 PUSH2 0x38F DUP5 DUP3 DUP6 ADD PUSH2 0x359 JUMP JUMPDEST SWAP2 POP POP SWAP3 SWAP2 POP POP JUMP JUMPDEST PUSH0 PUSH0 REVERT JUMPDEST PUSH0 PUSH0 REVERT JUMPDEST PUSH32 0x4E487B7100000000000000000000000000000000000000000000000000000000 PUSH0 MSTORE PUSH1 0x41 PUSH1 0x4 MSTORE PUSH1 0x24 PUSH0 REVERT JUMPDEST PUSH2 0x3D6 DUP3 PUSH2 0x2BC JUMP JUMPDEST DUP2 ADD DUP2 DUP2 LT PUSH8 0xFFFFFFFFFFFFFFFF DUP3 GT OR ISZERO PUSH2 0x3F5 JUMPI PUSH2 0x3F4 PUSH2 0x3A0 JUMP JUMPDEST JUMPDEST DUP1 PUSH1 0x40 MSTORE POP POP POP JUMP JUMPDEST PUSH0 PUSH2 0x407 PUSH2 0x332 JUMP JUMPDEST SWAP1 POP PUSH2 0x413 DUP3 DUP3 PUSH2 0x3CD JUMP JUMPDEST SWAP2 SWAP1 POP JUMP JUMPDEST PUSH0 PUSH8 0xFFFFFFFFFFFFFFFF DUP3 GT ISZERO PUSH2 0x432 JUMPI PUSH2 0x431 PUSH2 0x3A0 JUMP JUMPDEST JUMPDEST PUSH2 0x43B DUP3 PUSH2 0x2BC JUMP JUMPDEST SWAP1 POP PUSH1 0x20 DUP2 ADD SWAP1 POP SWAP2 SWAP1 POP JUMP JUMPDEST DUP3 DUP2 DUP4 CALLDATACOPY PUSH0 DUP4 DUP4 ADD MSTORE POP POP POP JUMP JUMPDEST PUSH0 PUSH2 0x468 PUSH2 0x463 DUP5 PUSH2 0x418 JUMP JUMPDEST PUSH2 0x3FE JUMP JUMPDEST SWAP1 POP DUP3 DUP2 MSTORE PUSH1 0x20 DUP2 ADD DUP5 DUP5 DUP5 ADD GT ISZERO PUSH2 0x484 JUMPI PUSH2 0x483 PUSH2 0x39C JUMP JUMPDEST JUMPDEST PUSH2 0x48F DUP5 DUP3 DUP6 PUSH2 0x448 JUMP JUMPDEST POP SWAP4 SWAP3 POP POP POP JUMP JUMPDEST PUSH0 DUP3 PUSH1 0x1F DUP4 ADD SLT PUSH2 0x4AB JUMPI PUSH2 0x4AA PUSH2 0x398 JUMP JUMPDEST JUMPDEST DUP2 CALLDATALOAD PUSH2 0x4BB DUP5 DUP3 PUSH1 0x20 DUP7 ADD PUSH2 0x456 JUMP JUMPDEST SWAP2 POP POP SWAP3 SWAP2 POP POP JUMP JUMPDEST PUSH0 PUSH1 0x20 DUP3 DUP5 SUB SLT ISZERO PUSH2 0x4D9 JUMPI PUSH2 0x4D8 PUSH2 0x33B JUMP JUMPDEST JUMPDEST PUSH0 DUP3 ADD CALLDATALOAD PUSH8 0xFFFFFFFFFFFFFFFF DUP2 GT ISZERO PUSH2 0x4F6 JUMPI PUSH2 0x4F5 PUSH2 0x33F JUMP JUMPDEST JUMPDEST PUSH2 0x502 DUP5 DUP3 DUP6 ADD PUSH2 0x497 JUMP JUMPDEST SWAP2 POP POP SWAP3 SWAP2 POP POP JUMP JUMPDEST PUSH0 PUSH0 PUSH1 0x40 DUP4 DUP6 SUB SLT ISZERO PUSH2 0x521 JUMPI PUSH2 0x520 PUSH2 0x33B JUMP JUMPDEST JUMPDEST PUSH0 PUSH2 0x52E DUP6 DUP3 DUP7 ADD PUSH2 0x359 JUMP JUMPDEST SWAP3 POP POP PUSH1 0x20 DUP4 ADD CALLDATALOAD PUSH8 0xFFFFFFFFFFFFFFFF DUP2 GT ISZERO PUSH2 0x54F JUMPI PUSH2 0x54E PUSH2 0x33F JUMP JUMPDEST JUMPDEST PUSH2 0x55B DUP6 DUP3 DUP7 ADD PUSH2 0x497 JUMP JUMPDEST SWAP2 POP POP SWAP3 POP SWAP3 SWAP1 POP JUMP JUMPDEST PUSH32 0x4E487B7100000000000000000000000000000000000000000000000000000000 PUSH0 MSTORE PUSH1 0x22 PUSH1 0x4 MSTORE PUSH1 0x24 PUSH0 REVERT JUMPDEST PUSH0 PUSH1 0x2 DUP3 DIV SWAP1 POP PUSH1 0x1 DUP3 AND DUP1 PUSH2 0x5A9 JUMPI PUSH1 0x7F DUP3 AND SWAP2 POP JUMPDEST PUSH1 0x20 DUP3 LT DUP2 SUB PUSH2 0x5BC JUMPI PUSH2 0x5BB PUSH2 0x565 JUMP JUMPDEST JUMPDEST POP SWAP2 SWAP1 POP JUMP JUMPDEST PUSH32 0x4E487B7100000000000000000000000000000000000000000000000000000000 PUSH0 MSTORE PUSH1 0x11 PUSH1 0x4 MSTORE PUSH1 0x24 PUSH0 REVERT JUMPDEST PUSH0 PUSH2 0x5F9 DUP3 PUSH2 0x263 JUMP JUMPDEST SWAP2 POP PUSH2 0x604 DUP4 PUSH2 0x263 JUMP JUMPDEST SWAP3 POP DUP3 DUP3 ADD SWAP1 POP DUP1 DUP3 GT ISZERO PUSH2 0x61C JUMPI PUSH2 0x61B PUSH2 0x5C2 JUMP JUMPDEST JUMPDEST SWAP3 SWAP2 POP POP JUMP JUMPDEST PUSH0 DUP2 SWAP1 POP DUP2 PUSH0 MSTORE PUSH1 0x20 PUSH0 KECCAK256 SWAP1 POP SWAP2 SWAP1 POP JUMP JUMPDEST PUSH0 PUSH1 0x20 PUSH1 0x1F DUP4 ADD DIV SWAP1 POP SWAP2 SWAP1 POP JUMP JUMPDEST PUSH0 DUP3 DUP3 SHL SWAP1 POP SWAP3 SWAP2 POP POP JUMP JUMPDEST PUSH0 PUSH1 0x8 DUP4 MUL PUSH2 0x67E PUSH32 0xFFFFFFFFFFFFFFFFFFFFFFFFFFFFFFFFFFFFFFFFFFFFFFFFFFFFFFFFFFFFFFFF DUP3 PUSH2 0x643 JUMP JUMPDEST PUSH2 0x688 DUP7 DUP4 PUSH2 0x643 JUMP JUMPDEST SWAP6 POP DUP1 NOT DUP5 AND SWAP4 POP DUP1 DUP7 AND DUP5 OR SWAP3 POP POP POP SWAP4 SWAP3 POP POP POP JUMP JUMPDEST PUSH0 DUP2 SWAP1 POP SWAP2 SWAP1 POP JUMP JUMPDEST PUSH0 PUSH2 0x6C3 PUSH2 0x6BE PUSH2 0x6B9 DUP5 PUSH2 0x263 JUMP JUMPDEST PUSH2 0x6A0 JUMP JUMPDEST PUSH2 0x263 JUMP JUMPDEST SWAP1 POP SWAP2 SWAP1 POP JUMP JUMPDEST PUSH0 DUP2 SWAP1 POP SWAP2 SWAP1 POP JUMP JUMPDEST PUSH2 0x6DC DUP4 PUSH2 0x6A9 JUMP JUMPDEST PUSH2 0x6F0 PUSH2 0x6E8 DUP3 PUSH2 0x6CA JUMP JUMPDEST DUP5 DUP5 SLOAD PUSH2 0x64F JUMP JUMPDEST DUP3 SSTORE POP POP POP POP JUMP JUMPDEST PUSH0 PUSH0 SWAP1 POP SWAP1 JUMP JUMPDEST PUSH2 0x707 PUSH2 0x6F8 JUMP JUMPDEST PUSH2 0x712 DUP2 DUP5 DUP5 PUSH2 0x6D3 JUMP JUMPDEST POP POP POP JUMP JUMPDEST JUMPDEST DUP2 DUP2 LT ISZERO PUSH2 0x735 JUMPI PUSH2 0x72A PUSH0 DUP3 PUSH2 0x6FF JUMP JUMPDEST PUSH1 0x1 DUP2 ADD SWAP1 POP PUSH2 0x718 JUMP JUMPDEST POP POP JUMP JUMPDEST PUSH1 0x1F DUP3 GT ISZERO PUSH2 0x77A JUMPI PUSH2 0x74B DUP2 PUSH2 0x622 JUMP JUMPDEST PUSH2 0x754 DUP5 PUSH2 0x634 JUMP JUMPDEST DUP2 ADD PUSH1 0x20 DUP6 LT ISZERO PUSH2 0x763 JUMPI DUP2 SWAP1 POP JUMPDEST PUSH2 0x777 PUSH2 0x76F DUP6 PUSH2 0x634 JUMP JUMPDEST DUP4 ADD DUP3 PUSH2 0x717 JUMP JUMPDEST POP POP JUMPDEST POP POP POP JUMP JUMPDEST PUSH0 DUP3 DUP3 SHR SWAP1 POP SWAP3 SWAP2 POP POP JUMP JUMPDEST PUSH0 PUSH2 0x79A PUSH0 NOT DUP5 PUSH1 0x8 MUL PUSH2 0x77F JUMP JUMPDEST NOT DUP1 DUP4 AND SWAP2 POP POP SWAP3 SWAP2 POP POP JUMP JUMPDEST PUSH0 PUSH2 0x7B2 DUP4 DUP4 PUSH2 0x78B JUMP JUMPDEST SWAP2 POP DUP3 PUSH1 0x2 MUL DUP3 OR SWAP1 POP SWAP3 SWAP2 POP POP JUMP JUMPDEST PUSH2 0x7CB DUP3 PUSH2 0x294 JUMP JUMPDEST PUSH8 0xFFFFFFFFFFFFFFFF DUP2 GT ISZERO PUSH2 0x7E4 JUMPI PUSH2 0x7E3 PUSH2 0x3A0 JUMP JUMPDEST JUMPDEST PUSH2 0x7EE DUP3 SLOAD PUSH2 0x592 JUMP JUMPDEST PUSH2 0x7F9 DUP3 DUP3 DUP6 PUSH2 0x739 JUMP JUMPDEST PUSH0 PUSH1 0x20 SWAP1 POP PUSH1 0x1F DUP4 GT PUSH1 0x1 DUP2 EQ PUSH2 0x82A JUMPI PUSH0 DUP5 ISZERO PUSH2 0x818 JUMPI DUP3 DUP8 ADD MLOAD SWAP1 POP JUMPDEST PUSH2 0x822 DUP6 DUP3 PUSH2 0x7A7 JUMP JUMPDEST DUP7 SSTORE POP PUSH2 0x889 JUMP JUMPDEST PUSH1 0x1F NOT DUP5 AND PUSH2 0x838 DUP7 PUSH2 0x622 JUMP JUMPDEST PUSH0 JUMPDEST DUP3 DUP2 LT ISZERO PUSH2 0x85F JUMPI DUP5 DUP10 ADD MLOAD DUP3 SSTORE PUSH1 0x1 DUP3 ADD SWAP2 POP PUSH1 0x20 DUP6 ADD SWAP5 POP PUSH1 0x20 DUP2 ADD SWAP1 POP PUSH2 0x83A JUMP JUMPDEST DUP7 DUP4 LT ISZERO PUSH2 0x87C JUMPI DUP5 DUP10 ADD MLOAD PUSH2 0x878 PUSH1 0x1F DUP10 AND DUP3 PUSH2 0x78B JUMP JUMPDEST DUP4 SSTORE POP JUMPDEST PUSH1 0x1 PUSH1 0x2 DUP9 MUL ADD DUP9 SSTORE POP POP POP JUMPDEST POP POP POP POP POP POP JUMP JUMPDEST PUSH0 DUP2 SWAP1 POP SWAP3 SWAP2 POP POP JUMP JUMPDEST PUSH0 PUSH2 0x8A5 DUP3 PUSH2 0x294 JUMP JUMPDEST PUSH2 0x8AF DUP2 DUP6 PUSH2 0x891 JUMP JUMPDEST SWAP4 POP PUSH2 0x8BF DUP2 DUP6 PUSH1 0x20 DUP7 ADD PUSH2 0x2AE JUMP JUMPDEST DUP1 DUP5 ADD SWAP2 POP POP SWAP3 SWAP2 POP POP JUMP JUMPDEST PUSH0 PUSH2 0x8D6 DUP3 DUP5 PUSH2 0x89B JUMP JUMPDEST SWAP2 POP DUP2 SWAP1 POP SWAP3 SWAP2 POP POP JUMP INVALID LOG2 PUSH5 0x6970667358 0x22 SLT KECCAK256 0xDF BLOBBASEFEE 0xA5 0xF6 0xCF PC POP GASLIMIT CALLF 0x91D5 0xD4 0xDA SELFDESTRUCT DUP3 DUP12 PUSH23 0x6279A9B3541F7035A3AA1C12F7508E64736F6C63430008 0x1E STOP CALLER "
		},
		"gasEstimates": {
			"creation": {
				"codeDepositCost": "465400",
				"executionCost": "infinite",
				"totalCost": "infinite"
			},
			"external": {
				"addPerson(uint256,string)": "infinite",
				"nameToFav(string)": "infinite",
				"person1()": "infinite",
				"retrieve()": "2409",
				"store(uint256)": "infinite"
			}
		},
		"methodIdentifiers": {
			"addPerson(uint256,string)": "bc832d4e",
			"nameToFav(string)": "95679e46",
			"person1()": "46cb59c2",
			"retrieve()": "2e64cec1",
			"store(uint256)": "6057361d"
		}
	},
	"abi": [
		{
			"inputs": [
				{
					"internalType": "uint256",
					"name": "_favNumber",
					"type": "uint256"
				},
				{
					"internalType": "string",
					"name": "_name",
					"type": "string"
				}
			],
			"name": "addPerson",
			"outputs": [],
			"stateMutability": "nonpayable",
			"type": "function"
		},
		{
			"inputs": [
				{
					"internalType": "string",
					"name": "",
					"type": "string"
				}
			],
			"name": "nameToFav",
			"outputs": [
				{
					"internalType": "uint256",
					"name": "",
					"type": "uint256"
				}
			],
			"stateMutability": "view",
			"type": "function"
		},
		{
			"inputs": [],
			"name": "person1",
			"outputs": [
				{
					"internalType": "uint256",
					"name": "favNumber",
					"type": "uint256"
				},
				{
					"internalType": "string",
					"name": "name",
					"type": "string"
				}
			],
			"stateMutability": "view",
			"type": "function"
		},
		{
			"inputs": [],
			"name": "retrieve",
			"outputs": [
				{
					"internalType": "uint256",
					"name": "",
					"type": "uint256"
				}
			],
			"stateMutability": "view",
			"type": "function"
		},
		{
			"inputs": [
				{
					"internalType": "uint256",
					"name": "_number",
					"type": "uint256"
				}
			],
			"name": "store",
			"outputs": [],
			"stateMutability": "nonpayable",
			"type": "function"
		}
	]
}